:100000000C944B010C947C010C947C010C947C01AD
:100010000C947C010C947C010C947C010C947C016C
:100020000C947C010C947C010C947C010C947C015C
:100030000C947C010C94BE040C947C010C947C0107
:100040000C947C010C947C010C947C010C947C013C
:100050000C947C010C947C010C947C010C94740431
:100060000C947C010C9448050C941E050C947C01A6
:100070000C947C010C947C010C947C010C947C010C
:100080000C947C010C947C010C947C010C947C01FC
:100090000C947C010C947C010C947C010C947C01EC
:1000A0000C947C010C947C010C947C010C947C01DC
:1000B0000C947C010C947C010C947C010C947C01CC
:1000C0000C947C010C947C010C947C010C947C01BC
:1000D0000C947C010C947C010C947C010C947C01AC
:1000E0000C947C010C9476090C94D1010C941003AF
:1000F0000C94CA090C9400020C94DE010C94C0020A
:100100000C94DA010C94E4010C949E090C94FA010D
:100110000C94AE080C94F2010C9449090C94AE01B5
:100120000C94FC020C9441090C9404020C94670991
:100130000C94A3030C9456030C948A090C94EC01C0
:100140000C9425090C9453090C94F6010C94CD01E0
:100150000C9416090C94E8010C941E030C94D40121
:100160000C941B090C94ED020C945D090C94390954
:100170000C94C5010C942F090C94A8090C948009C7
:100180000C94C9010C9494090C94B3010200002151
:1001900000240027002A002D003000330001010058
:1001A00000040107010A0100002200250028002B9D
:1001B000002E003100340002010000050108010B8F
:1001C0000105050505070508080808020202020ADC
:1001D0000A080804040404010101010101010103EA
:1001E00003030303030303040707070C0C0C0C0CA5
:1001F0000C0C0C0202020206060606060606060B98
:100200000B0B0B0B0B0B0B0102102020080810200E
:100210004010204080020102010804020101020492
:100220000810204080804020100804020180040251
:1002300001804020100804020108040201010204A8
:100240000810204080010204081020408000000AAD
:100250000B02090C0D0E080703040100000000004A
:10026000000000000000000000000000000000008E
:10027000000000000000000000121110000000004B
:10028000000000000000000000000000000000006E
:1002900000000000CA0911241FBECFEFD1E2DEBF6B
:1002A000CDBF00E00CBF12E0A0E0B2E0E6E9F4E16F
:1002B00000E00BBF02C007900D92A631B107D9F73D
:1002C00022E0A6E1B2E001C01D92A83EB207E1F72C
:1002D00011E0CBE4D1E000E006C021970109802FB6
:1002E000FE010E942D0ACA34D10780E00807A9F751
:1002F0000E947E050C94490A0C940000282F30E0DF
:10030000F901E35BFD4F9491F901E95FFD4F4491E1
:100310002F533E4FF9012491222309F435C099232C
:1003200011F191509231F8F4E92FF0E08827E4566A
:10033000FE4F8F4F0C942D0ACD01D101AE01C501A6
:10034000C901B301D401DA01DE01E401E801EC01E5
:10035000F201F601B301FA0100020402809180006B
:100360008F7780938000E22FF0E0EE0FFF1FE955BA
:10037000FE4FA591B4918FB7F894EC91611148C0EC
:1003800040954E234C938FBF0895809180008F7DC0
:10039000E8CF80918000877FE4CF84B58F7784BDDC
:1003A000E2CF84B58F7DFBCF8091B0008F778093B3
:1003B000B000D9CF8091B0008F7DF9CF80919000AF
:1003C0008F7780939000CFCF809190008F7DF9CF71
:1003D00080919000877FF5CF8091A0008F778093E8
:1003E000A000C1CF8091A0008F7DF9CF8091A000A7
:1003F000877FF5CF809120018F7780932001B3CF45
:10040000809120018F7DF9CF80912001877FF5CFEA
:100410004E2BB8CFCF93DF9390E0FC01E95FFD4F07
:1004200024918F539E4FFC0184918823D1F090E05A
:10043000880F991FFC01E357FE4FA591B491FC0171
:10044000E955FE4FC591D49161110EC09FB7F89444
:100450008C91E22FE0958E238C932881E223E88310
:100460009FBFDF91CF9108958FB7F894EC91E22B65
:10047000EC938FBFF6CF865320917B00982F987F07
:10048000277F922B90937B008770806480937C0001
:1004900080917A00806480937A0080917A0086FD52
:1004A000FCCF809178009091790008953FB7F8943F
:1004B0008091470290914802A0914902B0914A026E
:1004C00026B5A89B05C02F3F19F00196A11DB11DAF
:1004D0003FBFBA2FA92F982F8827BC01CD01620FEB
:1004E000711D811D911D42E0660F771F881F991FA6
:1004F0004A95D1F708959091000289130DC0ECE858
:10050000F1E0E4919FEF90930002E230E1F038F4E3
:10051000EE2381F0E13089F060E00C947E01E4305C
:1005200049F110F1E530C1F7909173009D7F9093F0
:100530007300F2CF10926E00EFCF90916F009D7F0D
:1005400090936F00E9CF909170009D7F9093700021
:1005500091E09093B0009091B100987F9460909357
:10056000B1001092B300D8CF909171009D7F90930D
:100570007100D2CF909172009D7F90937200CCCF8A
:10058000AF92BF92CF92DF92EF92FF920F931F93A1
:10059000CF93DF936C017B018B01040F151FEB01DF
:1005A0005E01AE18BF08C017D10759F06991D60196
:1005B000ED91FC910190F081E02DC6011995892BF8
:1005C00079F7C501DF91CF911F910F91FF90EF90C7
:1005D000DF90CF90BF90AF900895FC01538D448D74
:1005E000252F30E0842F90E0821B930B541710F0DE
:1005F000CF96089501970895FC01918D828D9817EB
:1006000061F0A28DAE0FBF2FB11D5D968C91928DC2
:100610009F5F9F73928F90E008958FEF9FEF0895F3
:10062000FC01918D828D981731F0828DE80FF11DBC
:10063000858D90E008958FEF9FEF0895FC01918DD7
:10064000228D892F90E0805C9F4F821B91098F73D0
:10065000992708958BE492E00E941E0321E0892BE4
:1006600009F420E0822F0895FC01A48DA80FB92F72
:10067000B11DA35ABF4F2C91848D90E001968F73CA
:100680009927848FA689B7892C93A089B1898C91E9
:10069000837080648C93938D848D981306C0028838
:1006A000F389E02D80818F7D80830895EF92FF9202
:1006B0000F931F93CF93DF93EC0181E0888F9B8D85
:1006C0008C8D98131AC0E889F989808185FF15C03F
:1006D0009FB7F894EE89FF896083E889F989808162
:1006E0008370806480839FBF81E090E0DF91CF9131
:1006F0001F910F91FF90EF900895F62E0B8D10E053
:100700000F5F1F4F0F731127E02E8C8D8E110CC0C1
:100710000FB607FCFACFE889F989808185FFF5CF0C
:10072000CE010E943403F1CFEB8DEC0FFD2FF11DB4
:10073000E35AFF4FF0829FB7F8940B8FEA89FB8949
:1007400080818062CFCFCF93DF93EC01888D8823A7
:10075000B9F0AA89BB89E889F9898C9185FD03C024
:10076000808186FD0DC00FB607FCF7CF8C9185FF09
:10077000F2CF808185FFEDCFCE010E943403E9CF17
:10078000DF91CF91089580E090E0892B29F00E94BD
:100790002A0381110E94000080E090E0892B49F03B
:1007A00080E090E0892B29F00E94000081110E94D6
:1007B000000080E090E0892B49F080E090E0892BF8
:1007C00029F00E94000081110E94000080E090E06A
:1007D000892B49F080E090E0892B29F00E940000ED
:1007E00081110C94000008951092400260E085E2AF
:1007F0000E947E0160E083E20E947E0184E10E940B
:100800007B02109237021092360210923A02109236
:10081000390210923F0210923E021092380208955F
:100820008F929F92AF92BF920F931F93CF93DF93BC
:10083000CDB7DEB7A1970FB6F894DEBF0FBECDBF20
:1008400019A2423008F44AE08E010F5D1F4F842E3A
:10085000912CB12CA12CA50194010E940B0AE62F2A
:10086000B901CA01EA3044F5E05DD801EE938D018B
:10087000232B242B252B79F790E080E0109769F04B
:10088000FD0101900020E9F73197AF014A1B5B0B96
:10089000BD018BE492E00E94C002A1960FB6F894CD
:1008A000DEBF0FBECDBFDF91CF911F910F91BF90E3
:1008B000AF909F908F900895E95CD7CF4AE066E6AD
:1008C00076E680E090E00E94100442E050E063E1B0
:1008D00072E08BE492E00E94C00281E080933D02CE
:1008E00061E08DE00C947E011F920F920FB60F9283
:1008F00011242F933F938F939F93AF93BF93809136
:10090000430290914402A0914502B0914602309179
:10091000420223E0230F2D3758F50196A11DB11D8A
:10092000209342028093430290934402A093450295
:10093000B09346028091470290914802A0914902EB
:10094000B0914A020196A11DB11D80934702909378
:100950004802A0934902B0934A02BF91AF919F9180
:100960008F913F912F910F900FBE0F901F90189570
:1009700026E8230F0296A11DB11DD2CF1F920F9220
:100980000FB60F9211240BB60F922F933F934F93F4
:100990005F936F937F938F939F93AF93BF93EF93E7
:1009A000FF9380912A0290912B02A0912C02B0918A
:1009B0002D02892B8A2B8B2BE1F190911902E0916A
:1009C0001A02F0911B0280818927808380912A027C
:1009D00090912B02A0912C02B0912D0218161906AD
:1009E0001A061B069CF480912A0290912B02A0917A
:1009F0002C02B0912D020197A109B10980932A021E
:100A000090932B02A0932C02B0932D02FF91EF91B3
:100A1000BF91AF919F918F917F916F915F914F9116
:100A20003F912F910F900BBE0F900FBE0F901F9014
:100A30001895809100020E947B02E8CF1F920F92CE
:100A40000FB60F9211240BB60F922F933F934F9333
:100A50005F936F937F938F939F93AF93BF93EF9326
:100A6000FF938BE492E00E943403FF91EF91BF91DA
:100A7000AF919F918F917F916F915F914F913F9136
:100A80002F910F900BBE0F900FBE0F901F901895D7
:100A90001F920F920FB60F9211240BB60F922F9345
:100AA0008F939F93EF93FF93E0915B02F0915C0231
:100AB0008081E0916102F091620282FD1DC090810F
:100AC000809164028F5F8F7320916502821741F0DD
:100AD000E0916402F0E0E55BFD4F958F8093640246
:100AE000FF91EF919F918F912F910F900BBE0F90DF
:100AF0000FBE0F901F9018958081F2CF789484B527
:100B0000826084BD84B5816084BD85B5826085BD09
:100B100085B5816085BD80916E00816080936E0097
:100B20001092810080918100826080938100809189
:100B3000810081608093810080918000816080933A
:100B400080008091B10084608093B1008091B000FA
:100B500081608093B00080919100826080939100C9
:100B600080919100816080939100809190008160DC
:100B7000809390008091A10082608093A100809179
:100B8000A10081608093A1008091A000816080938A
:100B9000A000809121018260809321018091210138
:100BA00081608093210180912001816080932001E8
:100BB00080917A00846080937A0080917A008260CC
:100BC00080937A0080917A00816080937A0080918E
:100BD0007A00806880937A001092C10060E081E41E
:100BE0000E940A0260E08FE30E940A0260E085E44E
:100BF0000E940A0260E087E30E940A0261E083E249
:100C00000E940A0261E085E20E940A0261E08DE032
:100C10000E940A0261E088E30E940A0261E084E126
:100C20000E940A02E0915B02F0915C0282E0808304
:100C3000E0915702F09158021082E0915902F09130
:100C40005A028FEC808310926302E0915F02F09170
:100C5000600286E08083E0915D02F0915E02808117
:100C600080618083E0915D02F0915E028081886006
:100C70008083E0915D02F0915E02808180688083D4
:100C8000E0915D02F0915E0280818F7D8083CC24B3
:100C9000CA94DC2C7601CFE7DEE3E5ED2E2EE1E011
:100CA0003E2E81E40E943B0220913E0230913F02A1
:100CB0008C3241E09407CCF52F3F3F4F41F00E942A
:100CC000F403EFEFFFEFF0933F02E0933E028091D9
:100CD0003E0290913F02892B29F4809141028823A2
:100CE00009F418C28091390290913A0201969C0150
:100CF00027703327232B41F190933A0280933902D6
:100D000080913D020BE910E0813011F010E000E02D
:100D100061E088E30E940A020115110509F0FDC196
:100D200060E088E30E947E011DC28D3B92407CF210
:100D30002130310561F20E94F40321E030E030936C
:100D40003F0220933E02C3CF10923A021092390222
:100D500080913802813011F510923802809138026A
:100D6000813009F0BAC1809100028431D9F4ECE8F5
:100D7000F1E0149117FD71C161E084E10E940A0263
:100D8000112309F4E6C0123009F0F7C08091B100D8
:100D9000887F84608093B10089EF8FC181E0809368
:100DA0003802DCCF8F3F09F058C184E18093000204
:100DB000ECE8F1E01491812F1F3F09F44EC112308D
:100DC00009F468C060F4112379F1113009F444C0CA
:100DD00087FD43C161E084E10E940A02D4CF143050
:100DE00009F499C008F478C0153091F710922001E9
:100DF00010922101809121018860809321018091CE
:100E00002101816080932101F1018491E82FF0E0BC
:100E1000EE0FFF1FE955FE4F85919491EBE1F2E053
:100E2000849180931602A8CF14BC15BC84B582604F
:100E300084BD85B5816085BDF1018491E82FF0E026
:100E4000EE0FFF1FE955FE4F85919491EBE1F2E023
:100E5000849180931D0290CF1092800010928100A7
:100E60008091810088608093810080918100816001
:100E700080938100F1018491E82FF0E0EE0FFF1FD5
:100E8000E955FE4F85919491EBE1F2E084918093D6
:100E90001C0272CF1092B0001092B1008091B0008D
:100EA00082608093B0008091B10081608093B10036
:100EB000F1018491E82FF0E0EE0FFF1FE955FE4F9E
:100EC0008591949190931B0280931A02EBE1F2E0DA
:100ED00084918093190250CF10929000109291004B
:100EE0008091910088608093910080919100816051
:100EF00080939100F1018491E82FF0E0EE0FFF1F45
:100F0000E955FE4F85919491EBE1F2E08491809355
:100F1000180213E031CF1092A0001092A10080912E
:100F2000A10088608093A1008091A10081608093DE
:100F3000A100F1018491E82FF0E0EE0FFF1FE955C9
:100F4000FE4F85919491EBE1F2E08491809317023A
:100F500013CF85B5887F836085BD89EF87BDC0923B
:100F60003202D0923302E0923402F0923502809144
:100F70006E00826080936E0070C01130C1F4809169
:100F80008100887F816080938100D0938900C09325
:100F90008800C0922E02D0922F02E0923002F0928E
:100FA000310280916F00826080936F0056C01330D1
:100FB000C1F480919100887F816080939100D093EB
:100FC0009900C0939800C0922602D0922702E09226
:100FD0002802F09229028091710082608093710052
:100FE0003CC01430C1F48091A100887F816080935F
:100FF000A100D093A900C093A800C0922202D09271
:101000002302E0922402F092250280917200826015
:101010008093720022C01530C1F480912101887F35
:10102000816080932101D0932901C0932801C0924F
:101030001E02D0921F02E0922002F09221028091C3
:10104000730082608093730008C01230A9F154F5D8
:10105000112381F1113009F498CF609138028DE0AD
:101060000E947E0180913602909137020196909302
:1010700037028093360264E170E00E94F709892B01
:1010800011F40E94F40380914102882351F1B09041
:1010900038026B2D83E20E947E016B2D85E20E9457
:1010A0007E012ECE143009F4A4CF0CF488CF153075
:1010B000A1F6B9CF8FE752CF8FE78093B300C092EC
:1010C0002A02D0922B02E0922C02F0922D02809103
:1010D0007000826080937000C0CF84E10E947B0228
:1010E000BCCF80913E0290913F028F3F980739F428
:1010F0006091380283E20E947E0160E0CFCF0197C9
:1011000009F0FECD6091380285E20E947E0160E028
:1011100083E2C5CF0E94F403F3CDE5E8F2E08491C9
:10112000EFEFE80FE23108F013C1F0E08827E45652
:10113000F74F8F4F0C942D0AAE0816091B0925098D
:101140002F09A80939094109490953095D096709A6
:1011500076098009A8098A0994099E0984B58068DE
:1011600084BD07BD8FE30E943B028D3BF2E09F07E9
:101170000CF4F4C021E030E030933C0220933B02B9
:101180000E945E0487E30E943B025C018D52914005
:101190008F38914028F08091400281110E94F40321
:1011A00087E30E943B0280913E0290913F028D7F37
:1011B000892B59F0F2ECAF1AF1E0BF0A25E6A2162E
:1011C000B10418F481E08093400285E40E943B0260
:1011D00021E08C3291400CF420E0209341020E94E7
:1011E00056022B013C0182E3882E912CA12CB12CBC
:1011F0000E9456026419750986099709683E734072
:1012000081059105A8F341E0841A9108A108B1086D
:1012100088EE480E83E0581E611C711C81149104F5
:10122000A104B10429F70E94C3033BCD84B58062B9
:1012300084BD08BD97CF8091800080688093800036
:1012400010938900009388008DCF80918000806288
:101250008093800010938B0000938A0083CF80914D
:10126000800088608093800010938D0000938C0034
:1012700079CF8091B00080688093B0000093B30074
:1012800071CF8091B00080628093B0000093B40071
:1012900069CF8091900080688093900010939900AE
:1012A000009398005FCF80919000806280939000BF
:1012B00010939B0000939A0055CF80919000886016
:1012C0008093900010939D0000939C004BCF8091E1
:1012D000A00080688093A0008091A0008F7B809305
:1012E000A0001093A9000093A8003CCF8091A0001B
:1012F00080628093A0001093AB000093AA0032CFCD
:101300008091A00088608093A0001093AD000093AE
:10131000AC0028CF80912001806880932001109339
:101320002901009328011ECF8091200180628093C3
:10133000200110932B0100932A0114CF80912001EA
:1013400088608093200110932D0100932C010ACF17
:10135000003811050CF4E4CC61E0E3CC8C32914010
:101360003CF48FEF9FEF90933C0280933B0208CFB9
:1013700080913B0290913C02019709F003CF1092BB
:101380003C0210923B0210923D0260E08DE00E9410
:101390007E01F8CEEBE4F2E01382128288EE93E055
:1013A000A0E0B0E084839583A683B78385E092E0D4
:1013B0009183808385EC90E09587848784EC90E02E
:1013C0009787868780EC90E0918B808B81EC90E012
:1013D000938B828B82EC90E0958B848B86EC90E0F3
:1013E000978B868B118E128E138E148E089597FB19
:1013F000072E16F4009407D077FD09D00E94350A15
:1014000007FC05D03EF4909581959F4F0895709507
:1014100061957F4F0895A1E21A2EAA1BBB1BFD0107
:101420000DC0AA1FBB1FEE1FFF1FA217B307E407C3
:10143000F50720F0A21BB30BE40BF50B661F771F1B
:10144000881F991F1A9469F76095709580959095FB
:101450009B01AC01BD01CF010895EE0FFF1F881F56
:101460008BBF0790F691E02D1994AA1BBB1B51E18D
:1014700007C0AA1FBB1FA617B70710F0A61BB70B04
:10148000881F991F5A95A9F780959095BC01CD01A9
:061490000895F894FFCF5F
:10149600FF000000005603C002ED02A3031E03FC7A
:0614A6000210030D0A0014
:00000001FF
