:100000000C944B010C947C010C947C010C947C01AD
:100010000C947C010C947C010C947C010C947C016C
:100020000C947C010C947C010C947C010C947C015C
:100030000C947C010C947B040C947C010C947C014A
:100040000C947C010C947C010C947C010C947C013C
:100050000C947C010C947C010C947C010C94310474
:100060000C947C010C9405050C94DB040C947C012D
:100070000C947C010C947C010C947C010C947C010C
:100080000C947C010C947C010C947C010C947C01FC
:100090000C947C010C947C010C947C010C947C01EC
:1000A0000C947C010C947C010C947C010C947C01DC
:1000B0000C947C010C947C010C947C010C947C01CC
:1000C0000C947C010C947C010C947C010C947C01BC
:1000D0000C947C010C947C010C947C010C947C01AC
:1000E0000C947C010C94E4010C94E8010C94EC0158
:1000F0000C94FA080C94D4010C94DA010C9437098E
:100100000C9428090C9455090C9441090C941E096F
:100110000C944B090C9402090C94B3010C94A303A6
:100120000C94DC080C94F2010C9404020C9410035F
:100130000C94CD010C9469090C94C0020C94DE015E
:100140000C94FA010C94C9010C94D1010C94C501D2
:100150000C94D7080C9414090C941E030C94000200
:100160000C94FC020C94ED020C94F6010C94F00833
:100170000C94AE010C94E6080C9456030C945F09A1
:100180000C940A090C9488090C946A080200002156
:1001900000240027002A002D003000330001010058
:1001A00000040107010A0100002200250028002B9D
:1001B000002E003100340002010000050108010B8F
:1001C0000105050505070508080808020202020ADC
:1001D0000A080804040404010101010101010103EA
:1001E00003030303030303040707070C0C0C0C0CA5
:1001F0000C0C0C0202020206060606060606060B98
:100200000B0B0B0B0B0B0B0102102020080810200E
:100210004010204080020102010804020101020492
:100220000810204080804020100804020180040251
:1002300001804020100804020108040201010204A8
:100240000810204080010204081020408000000AAD
:100250000B02090C0D0E080703040100000000004A
:10026000000000000000000000000000000000008E
:10027000000000000000000000121110000000004B
:10028000000000000000000000000000000000006E
:1002900000000000880911241FBECFEFD1E2DEBFAD
:1002A000CDBF00E00CBF12E0A0E0B2E0EEECF3E165
:1002B00000E00BBF02C007900D92AA35B107D9F735
:1002C00023E0AAE5B2E001C01D92AC32B207E1F72B
:1002D00011E0CBE4D1E000E006C021970109802FB6
:1002E000FE010E94C909CA34D10780E00807A9F7B6
:1002F0000E943B050C94E5090C940000282F30E087
:10030000F901E35BFD4F9491F901E95FFD4F4491E1
:100310002F533E4FF9012491222309F435C099232C
:1003200011F191509231F8F4E92FF0E08827E4566A
:10033000FE4F8F4F0C94C909CD01D101AE01C5010B
:10034000C901B301D401DA01DE01E401E801EC01E5
:10035000F201F601B301FA0100020402809180006B
:100360008F7780938000E22FF0E0EE0FFF1FE955BA
:10037000FE4FA591B4918FB7F894EC91611148C0EC
:1003800040954E234C938FBF0895809180008F7DC0
:10039000E8CF80918000877FE4CF84B58F7784BDDC
:1003A000E2CF84B58F7DFBCF8091B0008F778093B3
:1003B000B000D9CF8091B0008F7DF9CF80919000AF
:1003C0008F7780939000CFCF809190008F7DF9CF71
:1003D00080919000877FF5CF8091A0008F778093E8
:1003E000A000C1CF8091A0008F7DF9CF8091A000A7
:1003F000877FF5CF809120018F7780932001B3CF45
:10040000809120018F7DF9CF80912001877FF5CFEA
:100410004E2BB8CFCF93DF9390E0FC01E95FFD4F07
:1004200024918F539E4FFC0184918823D1F090E05A
:10043000880F991FFC01E357FE4FA591B491FC0171
:10044000E955FE4FC591D49161110EC09FB7F89444
:100450008C91E22FE0958E238C932881E223E88310
:100460009FBFDF91CF9108958FB7F894EC91E22B65
:10047000EC938FBFF6CF865320917B00982F987F07
:10048000277F922B90937B008770806480937C0001
:1004900080917A00806480937A0080917A0086FD52
:1004A000FCCF809178009091790008953FB7F8943F
:1004B00080918B0290918C02A0918D02B0918E025E
:1004C00026B5A89B05C02F3F19F00196A11DB11DAF
:1004D0003FBFBA2FA92F982F8827BC01CD01620FEB
:1004E000711D811D911D42E0660F771F881F991FA6
:1004F0004A95D1F708959091000289130DC0ECE858
:10050000F1E0E4919FEF90930002E230E1F038F4E3
:10051000EE2381F0E13089F060E00C947E01E4305C
:1005200049F110F1E530C1F7909173009D7F9093F0
:100530007300F2CF10926E00EFCF90916F009D7F0D
:1005400090936F00E9CF909170009D7F9093700021
:1005500091E09093B0009091B100987F9460909357
:10056000B1001092B300D8CF909171009D7F90930D
:100570007100D2CF909172009D7F90937200CCCF8A
:10058000AF92BF92CF92DF92EF92FF920F931F93A1
:10059000CF93DF936C017B018B01040F151FEB01DF
:1005A0005E01AE18BF08C017D10759F06991D60196
:1005B000ED91FC910190F081E02DC6011995892BF8
:1005C00079F7C501DF91CF911F910F91FF90EF90C7
:1005D000DF90CF90BF90AF900895FC01538D448D74
:1005E000252F30E0842F90E0821B930B541710F0DE
:1005F000CF96089501970895FC01918D828D9817EB
:1006000061F0A28DAE0FBF2FB11D5D968C91928DC2
:100610009F5F9F73928F90E008958FEF9FEF0895F3
:10062000FC01918D828D981731F0828DE80FF11DBC
:10063000858D90E008958FEF9FEF0895FC01918DD7
:10064000228D892F90E0805C9F4F821B91098F73D0
:10065000992708958FE892E00E941E0321E0892BDC
:1006600009F420E0822F0895FC01A48DA80FB92F72
:10067000B11DA35ABF4F2C91848D90E001968F73CA
:100680009927848FA689B7892C93A089B1898C91E9
:10069000837080648C93938D848D981306C0028838
:1006A000F389E02D80818F7D80830895EF92FF9202
:1006B0000F931F93CF93DF93EC0181E0888F9B8D85
:1006C0008C8D98131AC0E889F989808185FF15C03F
:1006D0009FB7F894EE89FF896083E889F989808162
:1006E0008370806480839FBF81E090E0DF91CF9131
:1006F0001F910F91FF90EF900895F62E0B8D10E053
:100700000F5F1F4F0F731127E02E8C8D8E110CC0C1
:100710000FB607FCFACFE889F989808185FFF5CF0C
:10072000CE010E943403F1CFEB8DEC0FFD2FF11DB4
:10073000E35AFF4FF0829FB7F8940B8FEA89FB8949
:1007400080818062CFCFCF93DF93EC01888D8823A7
:10075000B9F0AA89BB89E889F9898C9185FD03C024
:10076000808186FD0DC00FB607FCF7CF8C9185FF09
:10077000F2CF808185FFEDCFCE010E943403E9CF17
:10078000DF91CF91089580E090E0892B29F00E94BD
:100790002A0381110E94000080E090E0892B49F03B
:1007A00080E090E0892B29F00E94000081110E94D6
:1007B000000080E090E0892B49F080E090E0892BF8
:1007C00029F00E94000081110E94000080E090E06A
:1007D000892B49F080E090E0892B29F00E940000ED
:1007E00081110C9400000895CF93DF93FC010190D8
:1007F0000020E9F73197AF01481B590BBC018FE886
:1008000092E00E94C002EC0142E050E063E172E03D
:100810008FE892E00E94C0028C0F9D1FDF91CF9164
:10082000089586E192E00E94F4031092840260E051
:1008300085E20E947E0160E083E20E947E0184E105
:100840000E947B0210927B0210927A0210927E022A
:1008500010927D02109283021092820210927C020A
:1008600008951F920F920FB60F9211242F933F936A
:100870008F939F93AF93BF9380918702909188024B
:10088000A0918902B0918A023091860223E0230F61
:100890002D3758F50196A11DB11D20938602809336
:1008A000870290938802A0938902B0938A02809174
:1008B0008B0290918C02A0918D02B0918E020196D4
:1008C000A11DB11D80938B0290938C02A0938D0289
:1008D000B0938E02BF91AF919F918F913F912F91D5
:1008E0000F900FBE0F901F90189526E8230F0296C9
:1008F000A11DB11DD2CF1F920F920FB60F921124DE
:100900000BB60F922F933F934F935F936F937F9309
:100910008F939F93AF93BF93EF93FF9380916E025A
:1009200090916F02A0917002B0917102892B8A2B75
:100930008B2BE1F190915D02E0915E02F0915F02FC
:1009400080818927808380916E0290916F02A091AF
:100950007002B0917102181619061A061B069CF453
:1009600080916E0290916F02A0917002B09171021D
:100970000197A109B10980936E0290936F02A09331
:100980007002B0937102FF91EF91BF91AF919F916F
:100990008F917F916F915F914F913F912F910F9028
:1009A0000BBE0F900FBE0F901F9018958091000204
:1009B0000E947B02E8CF1F920F920FB60F92112474
:1009C0000BB60F922F933F934F935F936F937F9349
:1009D0008F939F93AF93BF93EF93FF938FE892E032
:1009E0000E943403FF91EF91BF91AF919F918F913E
:1009F0007F916F915F914F913F912F910F900BBE1F
:100A00000F900FBE0F901F9018951F920F920FB668
:100A10000F9211240BB60F922F938F939F93EF9306
:100A2000FF93E0919F02F091A0028081E091A502E6
:100A3000F091A60282FD1DC090818091A8028F5F77
:100A40008F732091A902821741F0E091A802F0E093
:100A5000E157FD4F958F8093A802FF91EF919F91F1
:100A60008F912F910F900BBE0F900FBE0F901F9084
:100A700018958081F2CF789484B5826084BD84B566
:100A8000816084BD85B5826085BD85B5816085BD89
:100A900080916E00816080936E0010928100809141
:100AA00081008260809381008091810081608093C9
:100AB0008100809180008160809380008091B100EE
:100AC00084608093B1008091B00081608093B00019
:100AD000809191008260809391008091910081606B
:100AE000809391008091900081608093900080912C
:100AF000A10082608093A1008091A1008160809319
:100B0000A1008091A00081608093A00080912101CC
:100B10008260809321018091210181608093210175
:100B20008091200181608093200180917A0084600F
:100B300080937A0080917A00826080937A0080911D
:100B40007A00816080937A0080917A008068809337
:100B50007A001092C10060E081E40E940A0260E025
:100B60008FE30E940A0260E085E40E940A0260E0CE
:100B700087E30E940A0261E083E20E940A0261E0C8
:100B800085E20E940A0261E08DE00E940A0261E0B3
:100B900088E30E940A0261E084E10E940A02E09177
:100BA0009F02F091A00282E08083E0919B02F0918D
:100BB0009C021082E0919D02F0919E028FEC808356
:100BC0001092A702E091A302F091A40286E0808334
:100BD000E091A102F091A202808180618083E09186
:100BE000A102F091A202808188608083E091A1023D
:100BF000F091A202808180688083E091A102F0914F
:100C0000A20280818F7D8083CC24CA94DC2C760163
:100C1000C3EADCE2E5ED2E2EE1E03E2E81E40E9407
:100C20003B0220918202309183028C3241E0940792
:100C3000C4F52F3F3F4F61F00E941104EFEFFFEF2B
:100C4000F0938302E09382028AE292E00E94F4032E
:100C50008091820290918302892B71F080917D02B4
:100C600090917E0201969C0127703327232B51F12E
:100C700090937E0280937D02809181020BE910E0C7
:100C8000813011F010E000E061E088E30E940A0288
:100C90000115110509F0FDC160E088E30E947E01A5
:100CA0001DC28D3B9240A4F22130310589F20E9491
:100CB000110421E030E0309383022093820281E42A
:100CC00092E0C4CF10927E0210927D0280917C024D
:100CD000813011F510927C0280917C02813009F004
:100CE000BBC1809100028431D9F4ECE8F1E01491A9
:100CF00017FD71C161E084E10E940A02112309F429
:100D0000E6C0123009F0F7C08091B100887F84609E
:100D10008093B10081EB90C181E080937C02DCCFB5
:100D20008F3F09F058C184E180930002ECE8F1E0C4
:100D30001491812F1F3F09F44EC1123009F468C08D
:100D400060F4112379F1113009F444C087FD43C1E7
:100D500061E084E10E940A02D4CF143009F499C002
:100D600008F478C0153091F71092200110922101FB
:100D7000809121018860809321018091210181600F
:100D800080932101F1018491E82FF0E0EE0FFF1F25
:100D9000E955FE4F85919491EBE1F2E084918093C7
:100DA0005A02A8CF14BC15BC84B5826084BD85B539
:100DB000816085BDF1018491E82FF0E0EE0FFF1F07
:100DC000E955FE4F85919491EBE1F2E08491809397
:100DD000610290CF1092800010928100809181007A
:100DE0008860809381008091810081608093810080
:100DF000F1018491E82FF0E0EE0FFF1FE955FE4F5F
:100E000085919491EBE1F2E084918093600272CF3E
:100E10001092B0001092B1008091B0008260809377
:100E2000B0008091B10081608093B100F1018491A4
:100E3000E82FF0E0EE0FFF1FE955FE4F85919491EA
:100E400090935F0280935E02EBE1F2E084918093E5
:100E50005D0250CF1092900010929100809191000D
:100E600088608093910080919100816080939100CF
:100E7000F1018491E82FF0E0EE0FFF1FE955FE4FDE
:100E800085919491EBE1F2E0849180935C0213E010
:100E900031CF1092A0001092A1008091A100886033
:100EA0008093A1008091A10081608093A100F10155
:100EB0008491E82FF0E0EE0FFF1FE955FE4F85917A
:100EC0009491EBE1F2E0849180935B0213CF85B5BE
:100ED000887F836085BD81EB87BDC0927602D0920A
:100EE0007702E0927802F092790280916E0082603F
:100EF00080936E0070C01130C1F480918100887FB2
:100F0000816080938100D0938900C0938800C09253
:100F10007202D0927302E0927402F0927502809194
:100F20006F00826080936F0056C01330C1F48091CF
:100F30009100887F816080939100D0939900C09345
:100F40009800C0926A02D0926B02E0926C02F0921A
:100F50006D02809171008260809371003CC01430FA
:100F6000C1F48091A100887F81608093A100D0931B
:100F7000A900C093A800C0926602D0926702E092D6
:100F80006802F09269028091720082608093720020
:100F900022C01530C1F480912101887F8160809347
:100FA0002101D0932901C0932801C0926202D092FE
:100FB0006302E0926402F0926502809173008260A5
:100FC0008093730008C01230B1F154F5112389F1F8
:100FD000113009F498CF60917C028DE00E947E016F
:100FE00080917A0290917B02019690937B0280938C
:100FF0007A0264E170E00E94B509892B11F40E9425
:10100000110480918502882359F1B0907C026B2DE8
:1010100083E20E947E016B2D85E20E947E012CCE30
:10102000143009F4A4CF0CF488CF153009F4B9CFEB
:10103000D2CF83EA51CF83EA8093B300C0926E028D
:10104000D0926F02E0927002F09271028091700073
:10105000826080937000BFCF84E10E947B02BBCF8F
:1010600080918202909183028F3F980739F46091BA
:101070007C0283E20E947E0160E0CECF019709F0FE
:10108000FBCD60917C0285E20E947E0160E083E2FC
:10109000C4CFE5E8F2E08491EFEFE80FE23108F029
:1010A00018C1F0E08827E85AF74F8F4F0C94C90910
:1010B0006A08D708DC08E608F0086909FA08020996
:1010C0000A0914091E0928093709410969094B0948
:1010D00055095F0984B5806884BD07BD8FE30E9410
:1010E0003B028D3BF2E09F070CF4F9C021E030E0B9
:1010F0003093800220937F0281E08093810261E03F
:101100008DE00E947E0187E30E943B025C018D52CC
:1011100091408F38914028F08091840281110E9483
:10112000110487E30E943B02809182029091830226
:101130008D7F892B59F0F2ECAF1AF1E0BF0A25E65A
:10114000A216B10418F481E08093840285E40E9421
:101150003B0221E0883592400CF420E02093850288
:101160000E9456022B013C0182E3882E912CA12C77
:10117000B12C0E9456026419750986099709683EC8
:10118000734081059105A8F341E0841A9108A108F4
:10119000B10888EE480E83E0581E611C711C811452
:1011A0009104A104B10429F70E94C30337CD84B58B
:1011B000806284BD08BD92CF80918000806880935A
:1011C0008000109389000093880088CF8091800070
:1011D00080628093800010938B0000938A007ECF02
:1011E0008091800088608093800010938D00009330
:1011F0008C0074CF8091B00080688093B000009321
:10120000B3006CCF8091B00080628093B0000093F7
:10121000B40064CF80919000806880939000109318
:101220009900009398005ACF80919000806280933B
:10123000900010939B0000939A0050CF80919000F3
:1012400088608093900010939D0000939C0046CF8F
:101250008091A00080688093A0008091A0008F7B87
:101260008093A0001093A9000093A80037CF80912D
:10127000A00080628093A0001093AB000093AA00AE
:101280002DCF8091A00088608093A0001093AD00C6
:101290000093AC0023CF80912001806880932001CF
:1012A000109329010093280119CF809120018062B9
:1012B0008093200110932B0100932A010FCF80917E
:1012C000200188608093200110932D0100932C0150
:1012D00005CF003811050CF4DFCC61E0DECC8C3298
:1012E00091403CF48FEF9FEF9093800280937F02B8
:1012F00003CF80917F0290918002019709F003CF84
:101300001092800210927F021092810260E0F8CE6B
:10131000EFE8F2E01382128288EE93E0A0E0B0E002
:1013200084839583A683B78385E092E0918380834D
:1013300085EC90E09587848784EC90E0978786879A
:1013400080EC90E0918B808B81EC90E0938B828B92
:1013500082EC90E0958B848B86EC90E0978B868B6B
:10136000118E128E138E148E089597FB072E16F48D
:10137000009407D077FD09D00E94D10907FC05D061
:101380003EF4909581959F4F0895709561957F4F9C
:101390000895EE0FFF1F881F8BBF0790F691E02D79
:1013A0001994AA1BBB1B51E107C0AA1FBB1FA6179C
:1013B000B70710F0A61BB70B881F991F5A95A9F7FE
:0E13C00080959095BC01CD010895F894FFCF63
:1013CE00FF000000005603C002ED02A3031E03FC43
:1013DE000210030D0A005455524E204F4646204926
:1013EE004E44494341544F5253005455524E204F90
:1013FE004E204C45465420494E44494341544F5289
:10140E00005455524E204F4E2052494748542049C1
:0A141E004E44494341544F52000070
:00000001FF
