:020000040000FA
:100000000C944B010C947C010C947C010C947C01AD
:100010000C947C010C947C010C947C010C947C016C
:100020000C947C010C947C010C947C010C947C015C
:100030000C947C010C947B040C947C010C947C014A
:100040000C947C010C947C010C947C010C947C013C
:100050000C947C010C947C010C947C010C94310474
:100060000C947C010C9405050C94DB040C947C012D
:100070000C947C010C947C010C947C010C947C010C
:100080000C947C010C947C010C947C010C947C01FC
:100090000C947C010C947C010C947C010C947C01EC
:1000A0000C947C010C947C010C947C010C947C01DC
:1000B0000C947C010C947C010C947C010C947C01CC
:1000C0000C947C010C947C010C947C010C947C01BC
:1000D0000C947C010C947C010C947C010C947C01AC
:1000E0000C947C010C94E4010C94E8010C94EC0158
:1000F0000C94FA080C94D4010C94DA010C9437098E
:100100000C9428090C9455090C9441090C941E096F
:100110000C944B090C9402090C94B3010C94A303A6
:100120000C94DC080C94F2010C9404020C9410035F
:100130000C94CD010C9469090C94C0020C94DE015E
:100140000C94FA010C94C9010C94D1010C94C501D2
:100150000C94D7080C9414090C941E030C94000200
:100160000C94FC020C94ED020C94F6010C94F00833
:100170000C94AE010C94E6080C9456030C945F09A1
:100180000C940A090C9488090C946A080200002156
:1001900000240027002A002D003000330001010058
:1001A00000040107010A0100002200250028002B9D
:1001B000002E003100340002010000050108010B8F
:1001C0000105050505070508080808020202020ADC
:1001D0000A080804040404010101010101010103EA
:1001E00003030303030303040707070C0C0C0C0CA5
:1001F0000C0C0C0202020206060606060606060B98
:100200000B0B0B0B0B0B0B0102102020080810200E
:100210004010204080020102010804020101020492
:100220000810204080804020100804020180040251
:1002300001804020100804020108040201010204A8
:100240000810204080010204081020408000000AAD
:100250000B02090C0D0E080703040100000000004A
:10026000000000000000000000000000000000008E
:10027000000000000000000000121110000000004B
:10028000000000000000000000000000000000006E
:1002900000000000880911241FBECFEFD1E2DEBFAD
:1002A000CDBF00E00CBF12E0A0E0B2E0EEECF3E165
:1002B00000E00BBF02C007900D92AA35B107D9F735
:1002C00023E0AAE5B2E001C01D92AC32B207E1F72B
:1002D00011E0CBE4D1E000E006C021970109802FB6
:1002E000FE010E94C909CA34D10780E00807A9F7B6
:1002F0000E943B050C94E5090C940000282F30E087
:10030000F901E35BFD4F9491F901E95FFD4F4491E1
:100310002F533E4FF9012491222309F435C099232C
:1003200011F191509231F8F4E92FF0E08827E4566A
:10033000FE4F8F4F0C94C909CD01D101AE01C5010B
:10034000C901B301D401DA01DE01E401E801EC01E5
:10035000F201F601B301FA0100020402809180006B
:100360008F7780938000E22FF0E0EE0FFF1FE955BA
:10037000FE4FA591B4918FB7F894EC91611148C0EC
:1003800040954E234C938FBF0895809180008F7DC0
:10039000E8CF80918000877FE4CF84B58F7784BDDC
:1003A000E2CF84B58F7DFBCF8091B0008F778093B3
:1003B000B000D9CF8091B0008F7DF9CF80919000AF
:1003C0008F7780939000CFCF809190008F7DF9CF71
:1003D00080919000877FF5CF8091A0008F778093E8
:1003E000A000C1CF8091A0008F7DF9CF8091A000A7
:1003F000877FF5CF809120018F7780932001B3CF45
:10040000809120018F7DF9CF80912001877FF5CFEA
:100410004E2BB8CFCF93DF9390E0FC01E95FFD4F07
:1004200024918F539E4FFC0184918823D1F090E05A
:10043000880F991FFC01E357FE4FA591B491FC0171
:10044000E955FE4FC591D49161110EC09FB7F89444
:100450008C91E22FE0958E238C932881E223E88310
:100460009FBFDF91CF9108958FB7F894EC91E22B65
:10047000EC938FBFF6CF865320917B00982F987F07
:10048000277F922B90937B008770806480937C0001
:1004900080917A00806480937A0080917A0086FD52
:1004A000FCCF809178009091790008953FB7F8943F
:1004B00080918B0290918C02A0918D02B0918E025E
:1004C00026B5A89B05C02F3F19F00196A11DB11DAF
:1004D0003FBFBA2FA92F982F8827BC01CD01620FEB
:1004E000711D811D911D42E0660F771F881F991FA6
:1004F0004A95D1F708959091000289130DC0ECE858
:10050000F1E0E4919FEF90930002E230E1F038F4E3
:10051000EE2381F0E13089F060E00C947E01E4305C
:1005200049F110F1E530C1F7909173009D7F9093F0
:100530007300F2CF10926E00EFCF90916F009D7F0D
:1005400090936F00E9CF909170009D7F9093700021
:1005500091E09093B0009091B100987F9460909357
:10056000B1001092B300D8CF909171009D7F90930D
:100570007100D2CF909172009D7F90937200CCCF8A
:10058000AF92BF92CF92DF92EF92FF920F931F93A1
:10059000CF93DF936C017B018B01040F151FEB01DF
:1005A0005E01AE18BF08C017D10759F06991D60196
:1005B000ED91FC910190F081E02DC6011995892BF8
:1005C00079F7C501DF91CF911F910F91FF90EF90C7
:1005D000DF90CF90BF90AF900895FC01538D448D74
:1005E000252F30E0842F90E0821B930B541710F0DE
:1005F000CF96089501970895FC01918D828D9817EB
:1006000061F0A28DAE0FBF2FB11D5D968C91928DC2
:100610009F5F9F73928F90E008958FEF9FEF0895F3
:10062000FC01918D828D981731F0828DE80FF11DBC
:10063000858D90E008958FEF9FEF0895FC01918DD7
:10064000228D892F90E0805C9F4F821B91098F73D0
:10065000992708958FE892E00E941E0321E0892BDC
:1006600009F420E0822F0895FC01A48DA80FB92F72
:10067000B11DA35ABF4F2C91848D90E001968F73CA
:100680009927848FA689B7892C93A089B1898C91E9
:10069000837080648C93938D848D981306C0028838
:1006A000F389E02D80818F7D80830895EF92FF9202
:1006B0000F931F93CF93DF93EC0181E0888F9B8D85
:1006C0008C8D98131AC0E889F989808185FF15C03F
:1006D0009FB7F894EE89FF896083E889F989808162
:1006E0008370806480839FBF81E090E0DF91CF9131
:1006F0001F910F91FF90EF900895F62E0B8D10E053
:100700000F5F1F4F0F731127E02E8C8D8E110CC0C1
:100710000FB607FCFACFE889F989808185FFF5CF0C
:10072000CE010E943403F1CFEB8DEC0FFD2FF11DB4
:10073000E35AFF4FF0829FB7F8940B8FEA89FB8949
:1007400080818062CFCFCF93DF93EC01888D8823A7
:10075000B9F0AA89BB89E889F9898C9185FD03C024
:10076000808186FD0DC00FB607FCF7CF8C9185FF09
:10077000F2CF808185FFEDCFCE010E943403E9CF17
:10078000DF91CF91089580E090E0892B29F00E94BD
:100790002A0381110E94000080E090E0892B49F03B
:1007A00080E090E0892B29F00E94000081110E94D6
:1007B000000080E090E0892B49F080E090E0892BF8
:1007C00029F00E94000081110E94000080E090E06A
:1007D000892B49F080E090E0892B29F00E940000ED
:1007E00081110C9400000895CF93DF93FC010190D8
:1007F0000020E9F73197AF01481B590BBC018FE886
:1008000092E00E94C002EC0142E050E063E172E03D
:100810008FE892E00E94C0028C0F9D1FDF91CF9164
:10082000089586E192E00E94F4031092840260E051
:1008300085E20E947E0160E083E20E947E0184E105
:100840000E947B0210927B0210927A0210927E022A
:1008500010927D02109283021092820210927C020A
:1008600008951F920F920FB60F9211242F933F936A
:100870008F939F93AF93BF9380918702909188024B
:10088000A0918902B0918A023091860223E0230F61
:100890002D3758F50196A11DB11D20938602809336
:1008A000870290938802A0938902B0938A02809174
:1008B0008B0290918C02A0918D02B0918E020196D4
:1008C000A11DB11D80938B0290938C02A0938D0289
:1008D000B0938E02BF91AF919F918F913F912F91D5
:1008E0000F900FBE0F901F90189526E8230F0296C9
:1008F000A11DB11DD2CF1F920F920FB60F921124DE
:100900000BB60F922F933F934F935F936F937F9309
:100910008F939F93AF93BF93EF93FF9380916E025A
:1009200090916F02A0917002B0917102892B8A2B75
:100930008B2BE1F190915D02E0915E02F0915F02FC
:1009400080818927808380916E0290916F02A091AF
:100950007002B0917102181619061A061B069CF453
:1009600080916E0290916F02A0917002B09171021D
:100970000197A109B10980936E0290936F02A09331
:100980007002B0937102FF91EF91BF91AF919F916F
:100990008F917F916F915F914F913F912F910F9028
:1009A0000BBE0F900FBE0F901F9018958091000204
:1009B0000E947B02E8CF1F920F920FB60F92112474
:1009C0000BB60F922F933F934F935F936F937F9349
:1009D0008F939F93AF93BF93EF93FF938FE892E032
:1009E0000E943403FF91EF91BF91AF919F918F913E
:1009F0007F916F915F914F913F912F910F900BBE1F
:100A00000F900FBE0F901F9018951F920F920FB668
:100A10000F9211240BB60F922F938F939F93EF9306
:100A2000FF93E0919F02F091A0028081E091A502E6
:100A3000F091A60282FD1DC090818091A8028F5F77
:100A40008F732091A902821741F0E091A802F0E093
:100A5000E157FD4F958F8093A802FF91EF919F91F1
:100A60008F912F910F900BBE0F900FBE0F901F9084
:100A700018958081F2CF789484B5826084BD84B566
:100A8000816084BD85B5826085BD85B5816085BD89
:100A900080916E00816080936E0010928100809141
:100AA00081008260809381008091810081608093C9
:100AB0008100809180008160809380008091B100EE
:100AC00084608093B1008091B00081608093B00019
:100AD000809191008260809391008091910081606B
:100AE000809391008091900081608093900080912C
:100AF000A10082608093A1008091A1008160809319
:100B0000A1008091A00081608093A00080912101CC
:100B10008260809321018091210181608093210175
:100B20008091200181608093200180917A0084600F
:100B300080937A0080917A00826080937A0080911D
:100B40007A00816080937A0080917A008068809337
:100B50007A001092C10060E081E40E940A0260E025
:100B60008FE30E940A0260E085E40E940A0260E0CE
:100B700087E30E940A0261E083E20E940A0261E0C8
:100B800085E20E940A0261E08DE00E940A0261E0B3
:100B900088E30E940A0261E084E10E940A02E09177
:100BA0009F02F091A00282E08083E0919B02F0918D
:100BB0009C021082E0919D02F0919E028FEC808356
:100BC0001092A702E091A302F091A40286E0808334
:100BD000E091A102F091A202808180618083E09186
:100BE000A102F091A202808188608083E091A1023D
:100BF000F091A202808180688083E091A102F0914F
:100C0000A20280818F7D8083CC24CA94DC2C760163
:100C1000C3EADCE2E5ED2E2EE1E03E2E81E40E9407
:100C20003B0220918202309183028C3241E0940792
:100C3000C4F52F3F3F4F61F00E941104EFEFFFEF2B
:100C4000F0938302E09382028AE292E00E94F4032E
:100C50008091820290918302892B71F080917D02B4
:100C600090917E0201969C0127703327232B51F12E
:100C700090937E0280937D02809181020BE910E0C7
:100C8000813011F010E000E061E088E30E940A0288
:100C90000115110509F0FDC160E088E30E947E01A5
:100CA0001DC28D3B9240A4F22130310589F20E9491
:100CB000110421E030E0309383022093820281E42A
:100CC00092E0C4CF10927E0210927D0280917C024D
:100CD000813011F510927C0280917C02813009F004
:100CE000BBC1809100028431D9F4ECE8F1E01491A9
:100CF00017FD71C161E084E10E940A02112309F429
:100D0000E6C0123009F0F7C08091B100887F84609E
:100D10008093B10081EB90C181E080937C02DCCFB5
:100D20008F3F09F058C184E180930002ECE8F1E0C4
:100D30001491812F1F3F09F44EC1123009F468C08D
:100D400060F4112379F1113009F444C087FD43C1E7
:100D500061E084E10E940A02D4CF143009F499C002
:100D600008F478C0153091F71092200110922101FB
:100D7000809121018860809321018091210181600F
:100D800080932101F1018491E82FF0E0EE0FFF1F25
:100D9000E955FE4F85919491EBE1F2E084918093C7
:100DA0005A02A8CF14BC15BC84B5826084BD85B539
:100DB000816085BDF1018491E82FF0E0EE0FFF1F07
:100DC000E955FE4F85919491EBE1F2E08491809397
:100DD000610290CF1092800010928100809181007A
:100DE0008860809381008091810081608093810080
:100DF000F1018491E82FF0E0EE0FFF1FE955FE4F5F
:100E000085919491EBE1F2E084918093600272CF3E
:100E10001092B0001092B1008091B0008260809377
:100E2000B0008091B10081608093B100F1018491A4
:100E3000E82FF0E0EE0FFF1FE955FE4F85919491EA
:100E400090935F0280935E02EBE1F2E084918093E5
:100E50005D0250CF1092900010929100809191000D
:100E600088608093910080919100816080939100CF
:100E7000F1018491E82FF0E0EE0FFF1FE955FE4FDE
:100E800085919491EBE1F2E0849180935C0213E010
:100E900031CF1092A0001092A1008091A100886033
:100EA0008093A1008091A10081608093A100F10155
:100EB0008491E82FF0E0EE0FFF1FE955FE4F85917A
:100EC0009491EBE1F2E0849180935B0213CF85B5BE
:100ED000887F836085BD81EB87BDC0927602D0920A
:100EE0007702E0927802F092790280916E0082603F
:100EF00080936E0070C01130C1F480918100887FB2
:100F0000816080938100D0938900C0938800C09253
:100F10007202D0927302E0927402F0927502809194
:100F20006F00826080936F0056C01330C1F48091CF
:100F30009100887F816080939100D0939900C09345
:100F40009800C0926A02D0926B02E0926C02F0921A
:100F50006D02809171008260809371003CC01430FA
:100F6000C1F48091A100887F81608093A100D0931B
:100F7000A900C093A800C0926602D0926702E092D6
:100F80006802F09269028091720082608093720020
:100F900022C01530C1F480912101887F8160809347
:100FA0002101D0932901C0932801C0926202D092FE
:100FB0006302E0926402F0926502809173008260A5
:100FC0008093730008C01230B1F154F5112389F1F8
:100FD000113009F498CF60917C028DE00E947E016F
:100FE00080917A0290917B02019690937B0280938C
:100FF0007A0264E170E00E94B509892B11F40E9425
:10100000110480918502882359F1B0907C026B2DE8
:1010100083E20E947E016B2D85E20E947E012CCE30
:10102000143009F4A4CF0CF488CF153009F4B9CFEB
:10103000D2CF83EA51CF83EA8093B300C0926E028D
:10104000D0926F02E0927002F09271028091700073
:10105000826080937000BFCF84E10E947B02BBCF8F
:1010600080918202909183028F3F980739F46091BA
:101070007C0283E20E947E0160E0CECF019709F0FE
:10108000FBCD60917C0285E20E947E0160E083E2FC
:10109000C4CFE5E8F2E08491EFEFE80FE23108F029
:1010A00018C1F0E08827E85AF74F8F4F0C94C90910
:1010B0006A08D708DC08E608F0086909FA08020996
:1010C0000A0914091E0928093709410969094B0948
:1010D00055095F0984B5806884BD07BD8FE30E9410
:1010E0003B028D3BF2E09F070CF4F9C021E030E0B9
:1010F0003093800220937F0281E08093810261E03F
:101100008DE00E947E0187E30E943B025C018D52CC
:1011100091408F38914028F08091840281110E9483
:10112000110487E30E943B02809182029091830226
:101130008D7F892B59F0F2ECAF1AF1E0BF0A25E65A
:10114000A216B10418F481E08093840285E40E9421
:101150003B0221E0883592400CF420E02093850288
:101160000E9456022B013C0182E3882E912CA12C77
:10117000B12C0E9456026419750986099709683EC8
:10118000734081059105A8F341E0841A9108A108F4
:10119000B10888EE480E83E0581E611C711C811452
:1011A0009104A104B10429F70E94C30337CD84B58B
:1011B000806284BD08BD92CF80918000806880935A
:1011C0008000109389000093880088CF8091800070
:1011D00080628093800010938B0000938A007ECF02
:1011E0008091800088608093800010938D00009330
:1011F0008C0074CF8091B00080688093B000009321
:10120000B3006CCF8091B00080628093B0000093F7
:10121000B40064CF80919000806880939000109318
:101220009900009398005ACF80919000806280933B
:10123000900010939B0000939A0050CF80919000F3
:1012400088608093900010939D0000939C0046CF8F
:101250008091A00080688093A0008091A0008F7B87
:101260008093A0001093A9000093A80037CF80912D
:10127000A00080628093A0001093AB000093AA00AE
:101280002DCF8091A00088608093A0001093AD00C6
:101290000093AC0023CF80912001806880932001CF
:1012A000109329010093280119CF809120018062B9
:1012B0008093200110932B0100932A010FCF80917E
:1012C000200188608093200110932D0100932C0150
:1012D00005CF003811050CF4DFCC61E0DECC8C3298
:1012E00091403CF48FEF9FEF9093800280937F02B8
:1012F00003CF80917F0290918002019709F003CF84
:101300001092800210927F021092810260E0F8CE6B
:10131000EFE8F2E01382128288EE93E0A0E0B0E002
:1013200084839583A683B78385E092E0918380834D
:1013300085EC90E09587848784EC90E0978786879A
:1013400080EC90E0918B808B81EC90E0938B828B92
:1013500082EC90E0958B848B86EC90E0978B868B6B
:10136000118E128E138E148E089597FB072E16F48D
:10137000009407D077FD09D00E94D10907FC05D061
:101380003EF4909581959F4F0895709561957F4F9C
:101390000895EE0FFF1F881F8BBF0790F691E02D79
:1013A0001994AA1BBB1B51E107C0AA1FBB1FA6179C
:1013B000B70710F0A61BB70B881F991F5A95A9F7FE
:1013C00080959095BC01CD010895F894FFCFFF0062
:1013D0000000005603C002ED02A3031E03FC02102E
:1013E000030D0A005455524E204F464620494E44A4
:1013F000494341544F5253005455524E204F4E20B2
:101400004C45465420494E44494341544F520054A0
:1014100055524E204F4E20524947485420494E4481
:08142000494341544F52000002
:020000040003F7
:10E000000D9489F10D94B2F10D94B2F10D94B2F129
:10E010000D94B2F10D94B2F10D94B2F10D94B2F1F0
:10E020000D94B2F10D94B2F10D94B2F10D94B2F1E0
:10E030000D94B2F10D94B2F10D94B2F10D94B2F1D0
:10E040000D94B2F10D94B2F10D94B2F10D94B2F1C0
:10E050000D94B2F10D94B2F10D94B2F10D94B2F1B0
:10E060000D94B2F10D94B2F10D94B2F10D94B2F1A0
:10E070000D94B2F10D94B2F10D94B2F10D94B2F190
:10E080000D94B2F10D94B2F10D94B2F10D94B2F180
:10E090000D94B2F10D94B2F10D94B2F10D94B2F170
:10E0A0000D94B2F10D94B2F10D94B2F10D94B2F160
:10E0B0000D94B2F10D94B2F10D94B2F10D94B2F150
:10E0C0000D94B2F10D94B2F10D94B2F10D94B2F140
:10E0D0000D94B2F10D94B2F10D94B2F10D94B2F130
:10E0E0000D94B2F141546D656761323536300041AF
:10E0F000726475696E6F206578706C6F72657220DE
:10E1000073746B3530305632206279204D4C530099
:10E11000426F6F746C6F616465723E004875683F52
:10E1200000436F6D70696C6564206F6E203D200048
:10E130004350552054797065202020203D20005FF9
:10E140005F4156525F415243485F5F3D2000415658
:10E1500052204C696243205665723D20004743437C
:10E160002056657273696F6E203D20004350552024
:10E1700049442020202020203D20004C6F7720663D
:10E18000757365202020203D20004869676820665F
:10E190007573652020203D200045787420667573D6
:10E1A00065202020203D20004C6F636B2066757336
:10E1B000652020203D20004D617220203720323024
:10E1C000313300312E362E3800342E332E350056A2
:10E1D00023202020414444522020206F7020636F70
:10E1E00064652020202020696E73747275637469E1
:10E1F0006F6E2061646472202020496E74657272B3
:10E20000757074006E6F20766563746F7200726A49
:10E210006D702020006A6D70200057686174207056
:10E220006F72743A00506F7274206E6F7420737541
:10E2300070706F72746564004D7573742062652030
:10E2400061206C6574746572002000577269747483
:10E25000696E672045450052656164696E672045B7
:10E26000450045452065727220636E743D00504F35
:10E27000525400303D5A65726F2061646472003FF1
:10E280003D43505520737461747300403D454550C3
:10E29000524F4D207465737400423D426C696E6B41
:10E2A000204C454400453D44756D70204545505215
:10E2B0004F4D00463D44756D7020464C415348001B
:10E2C000483D48656C70004C3D4C69737420492F83
:10E2D0004F20506F72747300513D51756974005234
:10E2E0003D44756D702052414D00563D73686F7707
:10E2F00020696E7465727275707420566563746FF0
:10E30000727300593D506F727420626C696E6B00BD
:10E310002A0011241FBECFEFD1E2DEBFCDBF01E046
:10E320000CBF12E0A0E0B2E0EEE1FDEF03E00BBFB6
:10E3300002C007900D92A030B107D9F712E0A0E01B
:10E34000B2E001C01D92AE30B107E1F70F9460F367
:10E350000D948DFE01E20EBF0FEF0DBF11241FBE05
:10E360000D9460F30D9400F020E030E040ED57E0B4
:10E3700005C0FA013197F1F72F5F3F4F2817390792
:10E38000C0F308959C01260F311DC901A0E0B0E043
:10E390002F5F3F4FABBFFC018791882361F08093D3
:10E3A000C6008091C00086FFFCCF8091C0008064D1
:10E3B0008093C000EACF08958DE08093C6008091DD
:10E3C000C00086FFFCCF8091C00080648093C000B5
:10E3D0008AE08093C6008091C00086FFFCCF8091C8
:10E3E000C00080648093C00008950F94C2F10F9420
:10E3F000DCF10895FC019081992359F09093C600B7
:10E400008091C00086FFFCCF8091C0008064809323
:10E41000C0003196992379F70895282F982F929567
:10E420009F70892F805D8A3308F0895F8093C600D2
:10E430008091C00086FFFCCF8091C00080648093F3
:10E44000C000822F8F70982F905D9A3308F0995FEB
:10E450009093C6008091C00086FFFCCF8091C000E1
:10E4600080648093C00008959C01FB01853691056E
:10E470001CF46330710594F0C90164E670E00F94F8
:10E480002EFE605D7F4F6093C6008091C00086FFC6
:10E49000FCCF8091C00080648093C0002B30310598
:10E4A00014F43297B4F0C90164E670E00F942EFEC4
:10E4B0006AE070E00F942EFE605D7F4F6093C600AF
:10E4C0008091C00086FFFCCF8091C0008064809363
:10E4D000C000C9016AE070E00F942EFEC0968093E0
:10E4E000C6008091C00086FFFCCF8091C000806490
:10E4F0008093C00008951F93182F8EE692EE60E07F
:10E500000F94C2F11093C6008091C00086FFFCCF2B
:10E510008091C00080648093C0000F94DCF11F9153
:10E5200008952F923F924F925F926F927F928F92B7
:10E530009F92AF92BF92CF92DF92EF92FF920F9392
:10E540001F93DF93CF93CDB7DEB762970FB6F894E2
:10E55000DEBF0FBECDBF382E622ECA01DB015C01CB
:10E560006D01772420E2222E2E010894411C511CBB
:10E570008BC081E0A81680E0B80681E0C80680E084
:10E58000D80628F0C601AA27BB270F940DF2BB2797
:10E59000AD2D9C2D8B2D0F940DF28A2D0F940DF225
:10E5A0002092C6008091C00086FFFCCF8091C00001
:10E5B00080648093C0009DE29093C6008091C0006B
:10E5C00086FFFCCF8091C00080648093C0002092C1
:10E5D000C6008091C00086FFFCCF8091C00080649F
:10E5E0008093C00019828601750188249924A1E0D6
:10E5F0003A1651F03A1620F0B2E03B1661F409C029
:10E600000BBFF701779007C0C7010F9477FE782EF4
:10E6100002C0F7017080872D0F940DF22092C60082
:10E620008091C00086FFFCCF8091C0008064809301
:10E63000C000872D8052F401EF70F0708F3520F408
:10E64000E40DF51D708204C0E40DF51D8EE280839B
:10E650000894E11CF11C011D111D0894811C911CE2
:10E6600090E18916910409F0C2CF80E190E0A0E02A
:10E67000B0E0A80EB91ECA1EDB1E198AC2010F9493
:10E68000FAF10F94DCF16A94662009F072CF629679
:10E690000FB6F894DEBF0FBECDBFCF91DF911F91B3
:10E6A0000F91FF90EF90DF90CF90BF90AF909F9031
:10E6B0008F907F906F905F904F903F902F90089534
:10E6C0002F923F924F925F926F927F928F929F9282
:10E6D000AF92BF92CF92DF92EF92FF920F931F9370
:10E6E000DF93CF93CDB7DEB7CD53D1400FB6F894BB
:10E6F000DEBF0FBECDBF01E20EBF0FEF0DBF94B75F
:10E70000F894A89514BE80916000886180936000A1
:10E7100010926000789493FF05C0E0910002F091A0
:10E7200001021995279A2F9A8091C00082608093E8
:10E73000C00080E18093C40088E18093C1000000A4
:10E74000EE24FF24870144E0A42EB12CCC24DD2448
:10E7500024C0C5010197F1F70894E11CF11C011DCB
:10E76000111D21E2E2162EE4F20620E0020720E06D
:10E77000120718F031E0C32ED12CC801B70127ECE5
:10E780003BE140E050E00F9441FE611571058105C9
:10E79000910519F485B1805885B98091C00087FD35
:10E7A00003C0C114D104A9F2A6014F5F5F4FC25E3E
:10E7B000DE4F59834883CE51D140C25EDE4F8881FF
:10E7C0009981CE51D140019711F00D9410FEC05D9A
:10E7D000DE4F19821882C053D14060E0C15DDE4F28
:10E7E0001882CF52D14088249924C35DDE4F19820C
:10E7F0001882CD52D140C05EDE4F188219821A8233
:10E800001B82C052D140CE5CDE4F188219821A8220
:10E810001B82C253D140EE24FF2487010BBFF701B6
:10E8200007911691C45CDE4F19830883CC53D14005
:10E830000D940BFEC25EDE4F28813981CE51D1404E
:10E840002130310509F52091C600C25EDE4F1982E4
:10E850001882CE51D14022C02F5F3F4F4F4F5F4FA4
:10E86000213082E138078AE7480780E0580780F0C6
:10E87000C45CDE4FE881F981CC53D140EF5FFF4F9C
:10E8800019F0EE27FF27099420E030E040E050E047
:10E890008091C00087FFE0CF2091C600C35DDE4FAE
:10E8A00048815981CD52D1404F5F5F4FC35DDE4FEC
:10E8B00059834883CD52D140213209F063C64A3092
:10E8C000510508F05FC60894811C911C53E0851621
:10E8D000910409F059C600E010E018C081E280936D
:10E8E000C6008091C00086FFFCCF8091C00080648C
:10E8F0008093C0002F5F3F4F2931310579F70F9486
:10E90000DCF10F5F1F4F0530110519F020E030E0FA
:10E91000E5CF10920A0210920B0210920C02109294
:10E920000D02109206021092070210920802109235
:10E930000902109202021092030210920402109235
:10E9400005028FEE90EE60E00F94F5F180E191EE1C
:10E9500060E00F94C2F18091C00087FFFCCF9091DE
:10E96000C600903608F09F759032B8F09093C600BC
:10E970008091C00086FFFCCF8091C00080648093AE
:10E98000C000A0E2A093C6008091C00086FFFCCF2B
:10E990008091C00080648093C000983409F4D7C18E
:10E9A0009934B8F4923409F459C1933458F490333B
:10E9B00019F1903308F4E3C59F33A1F1903409F0C5
:10E9C000DEC5BDC0953409F470C1963409F0D7C5D1
:10E9D00098C1923509F42BC2933538F49C3409F46C
:10E9E000F5C1913509F0CBC518C2963509F445C279
:10E9F000993509F0C4C567C483E792EE62E00F94CD
:10EA0000F5F110920602109207021092080210927D
:10EA1000090210920A0210920B0210920C0210923C
:10EA20000D0213C18FE792EE62E00F94F5F18FEEC5
:10EA300090EE60E00F94F5F181E291EE60E00F94CA
:10EA4000C2F187EB91EE60E00F94F5F180E391EE77
:10EA500060E00F94C2F184EE90EE60E00F94F5F167
:10EA60008FE391EE60E00F94C2F186E090E061E008
:10EA700070E00F9434F20F94DCF18DE591EE60E0DC
:10EA80000F94C2F189EC91EE60E00F94F5F18EE401
:10EA900091EE60E00F94C2F183EC91EE60E00F9490
:10EAA000F5F18CE691EE60E00F94C2F18EE10F94E7
:10EAB0000DF288E90F940DF281E00F940DF20F949E
:10EAC000DCF18BE791EE60E00F94C2F119E0E0E039
:10EAD000F0E010935700E4918E2F0F940DF20F94F5
:10EAE000DCF18AE891EE60E00F94C2F1E3E0F0E03F
:10EAF00010935700E4918E2F0F940DF20F94DCF1D8
:10EB000089E991EE60E00F94C2F1E2E0F0E0109349
:10EB10005700E4918E2F0F940DF20F94DCF188EAE8
:10EB200091EE60E00F94C2F1E1E0F0E01093570045
:10EB30001491812F0F940DF20F94DCF107CF8BE825
:10EB400092EE62E00F94F5F18BE492EE60E00F94A8
:10EB5000F5F10F94DCF100E010E019C0C8016F2D51
:10EB60000F947FFEFF2031F489E492EE60E00F9471
:10EB7000C2F10BC0F092C6008091C00086FFFCCFAE
:10EB80008091C00080648093C0000F5F1F4FC80158
:10EB900081519F41A0E0B0E0ABBFFC01F790BAE229
:10EBA000FB1621F0E2E000301E07C1F60F94DCF105
:10EBB0000F94DCF187E592EE60E00F94F5F10F948D
:10EBC000DCF1CC24DD2400E010E01EC0C8010F946D
:10EBD00077FEF82E882331F489E492EE60E00F94FA
:10EBE000C2F10BC08093C6008091C00086FFFCCFAD
:10EBF0008091C00080648093C000FE1419F00894D6
:10EC0000C11CD11C0F5F1F4FC80181519F41A0E063
:10EC1000B0E0ABBFFC01E790FAE2EF1621F022E092
:10EC20000030120799F60F94DCF10F94DCF182E6C4
:10EC300092EE60E00F94C2F1C60161E070E00F94C3
:10EC400034F20F94DCF10F94DCF110920202109276
:10EC50000302109204021092050278CE89E992EE26
:10EC600062E00F94F5F1279A2F9A16C02F9880E052
:10EC700090E0E0EDF7E03197F1F7019684369105E9
:10EC8000C1F72F9A80E090E0E0EDF7E03197F1F7DF
:10EC9000019684369105C1F78091C00087FFE6CFC9
:10ECA0008091C00087FFFCCF64C485EA92EE62E0E9
:10ECB0000F94F5F140910202509103026091040219
:10ECC0007091050281E020E10F9491F2809102029F
:10ECD00090910302A0910402B091050280509F4FD1
:10ECE000AF4FBF4F8093020290930302A0930402A0
:10ECF000B093050280509041A040B04008F426CE69
:10ED0000A4CF83EB92EE62E00F94F5F140910602FE
:10ED100050910702609108027091090280E020E1A1
:10ED20000F9491F28091060290910702A09108023F
:10ED3000B091090280509F4FAF4FBF4F80930602A2
:10ED400090930702A0930802B0930902FFCD80ECD4
:10ED500092EE62E00F94F5F183E792EE60E00F949B
:10ED6000F5F18FE792EE60E00F94F5F18BE892EE0B
:10ED700060E00F94F5F189E992EE60E00F94F5F10F
:10ED800085EA92EE60E00F94F5F183EB92EE60E09D
:10ED90000F94F5F180EC92EE60E00F94F5F187ECC2
:10EDA00092EE60E00F94F5F188ED92EE60E00F9442
:10EDB000F5F18FED92EE60E00F94F5F18AEE92EEB0
:10EDC00060E00F94F5F183E093EEBDCD87EC92EE19
:10EDD00062E00F94F5F181E40F947BF282E40F94EA
:10EDE0007BF283E40F947BF284E40F947BF285E45E
:10EDF0000F947BF286E40F947BF287E40F947BF20E
:10EE000088E40F947BF28AE40F947BF28BE40F94F6
:10EE10007BF28CE40F947BF299CD88ED92EE62E068
:10EE20000F94F5F1772473948824992409C48FED05
:10EE300092EE62E00F94F5F140910A0250910B02BC
:10EE400060910C0270910D0282E020E10F9491F22A
:10EE500080910A0290910B02A0910C02B0910D02D8
:10EE600080509F4FAF4FBF4F80930A0290930B0289
:10EE7000A0930C02B0930D0269CD8AEE92EE62E08F
:10EE80000F94F5F184EE90EE60E00F94F5F18FECC5
:10EE900091EE60E00F94F5F1662477244301CC5D98
:10EEA000DE4F19821882C452D140D401C301B695F5
:10EEB000A79597958795CA5DDE4F88839983AA8326
:10EEC000BB83C652D140CC5DDE4FA881B981C4520C
:10EED000D1401196CC5DDE4FB983A883C452D14096
:10EEE000CD0162E070E00F9434F2B0E2B093C6005E
:10EEF0008091C00086FFFCCF8091C0008064809329
:10EF0000C000EDE2E093C6008091C00086FFFCCF18
:10EF10008091C00080648093C000F0E2F093C6004E
:10EF20008091C00086FFFCCF8091C00080648093F8
:10EF3000C000CA5DDE4FE880F9800A811B81C6529D
:10EF4000D140BB27A12F902F8F2D0F940DF2CA5DBA
:10EF5000DE4F8881C652D1400F940DF2B0E2FB2EF5
:10EF6000F092C6008091C00086FFFCCF8091C00067
:10EF700080648093C0000DE30093C6008091C000C0
:10EF800086FFFCCF8091C00080648093C00010E2B7
:10EF90001093C6008091C00086FFFCCF8091C00016
:10EFA00080648093C0008BBEF3012791C65DDE4F65
:10EFB0002883CA52D140A22EBB24CC24DD2408943D
:10EFC000611C711C811C911C8BBEF3018791282E42
:10EFD0003324442455240894611C711C811C911C09
:10EFE0008BBEF3013791C55DDE4F3883CB52D140E4
:10EFF0000894611C711C811C911C8BBEF30147910C
:10F00000C45DDE4F4883CC52D140ADEFEA2EAFEF66
:10F01000FA2EAFEF0A2FAFEF1A2F6E0C7F1C801E57
:10F02000911E142D032DF22CEE24EA0CFB1C0C1D5A
:10F030001D1D0F940DF220E22093C6008091C000A8
:10F0400086FFFCCF8091C00080648093C000C65DC5
:10F05000DE4F8881CA52D1400F940DF230E23093D6
:10F06000C6008091C00086FFFCCF8091C000806404
:10F070008093C000C45DDE4F8881CC52D1400F9494
:10F080000DF240E24093C6008091C00086FFFCCFA5
:10F090008091C00080648093C000C55DDE4F888190
:10F0A000CB52D1400F940DF250E25093C6008091A4
:10F0B000C00086FFFCCF8091C00080648093C000B8
:10F0C0008FEFE8168FEFF80680E0080780E018075A
:10F0D00031F484E092EE60E00F94C2F1DFC0D80119
:10F0E000C7018070907CA070B0708050904CA040A0
:10F0F000B040D1F52FEF3FE340E050E0E222F322B1
:10F1000004231523CA5DDE4FA880B980CA80DB8046
:10F11000C652D140AE0CBF1CC01ED11EAA0CBB1CD7
:10F12000CC1CDD1C8EE092EE60E00F94C2F1BB2798
:10F13000A12F902F8F2D0F940DF28E2D0F940DF285
:10F1400030E23093C6008091C00086FFFCCF8091F2
:10F15000C00080648093C0004EE34093C60080915D
:10F16000C00086FFFCCF87C08EE09EEFA0E0B0E03D
:10F17000E822F9220A231B239CE0E91694E9F90608
:10F1800090E0090790E0190709F088C0C45DDE4FE0
:10F19000A881CC52D140EA2EFF2400E010E0102FCD
:10F1A0000F2DFE2CEE24C55DDE4FB881CB52D14031
:10F1B000EB0EF11C011D111DD601C501817090706F
:10F1C000A070B070DC0199278827E80EF91E0A1F8D
:10F1D0001B1F20EF30E040E050E0A222B322C42207
:10F1E000D52241E1AA0CBB1CCC1CDD1C4A95D1F7F1
:10F1F000EA0CFB1C0C1D1D1D81E090E0A0E0B0E0BE
:10F20000282239224A225B2235E1220C331C441C7D
:10F21000551C3A95D1F7E20CF31C041D151D57013E
:10F220006801AA0CBB1CCC1CDD1C85E192EE60E0E1
:10F230000F94C2F1C801AA27BB270F940DF2BB2778
:10F24000A12F902F8F2D0F940DF28E2D0F940DF274
:10F2500090E29093C6008091C00086FFFCCF809121
:10F26000C00080648093C000AEE3A093C60080918C
:10F27000C00086FFFCCF8091C00080648093C000F6
:10F28000C601AA27BB270F940DF2BB27AD2D9C2DDD
:10F290008B2D0F940DF28A2D0F940DF20F94DCF14B
:10F2A000CC5DDE4FE881F981C452D140F99709F471
:10F2B0004DCBF4E0EF2EF12C012D112D6E0C7F1CA7
:10F2C000801E911EF2CD83E093EE62E00F94F5F183
:10F2D0008AE192EE60E00F94C2F18091C00087FF56
:10F2E000FCCF1091C6001F751093C6008091C0001E
:10F2F00086FFFCCF8091C00080648093C0000F9493
:10F30000DCF1812F81548A3108F036C1163409F4BA
:10F3100095C0173490F4133409F44EC0143430F40B
:10F320001134F1F0123409F01DC130C0143409F465
:10F3300059C0153409F016C16BC01A3409F4C4C0A1
:10F340001B3438F4173409F48FC0183409F00AC19B
:10F35000A1C01B3409F4D2C01C3409F003C1E8C0B9
:10F360008FEF81B90DC082B1809582B980E090E0C5
:10F37000E0EDF7E03197F1F70196883C9105C1F790
:10F380008091C00087FFEFCF12B8EFC08FEF84B934
:10F390000DC085B1809585B980E090E0E0EDF7E0A3
:10F3A0003197F1F70196883C9105C1F78091C00033
:10F3B00087FFEFCF15B8D9C08FEF87B90DC088B1DF
:10F3C000809588B980E090E0E0EDF7E03197F1F7C3
:10F3D0000196883C9105C1F78091C00087FFEFCF6F
:10F3E00018B8C3C08FEF8AB90DC08BB180958BB9A7
:10F3F00080E090E0E0EDF7E03197F1F70196883C8E
:10F400009105C1F78091C00087FFEFCF1BB8ADC059
:10F410008FEF8DB90DC08EB180958EB980E090E0F0
:10F42000E0EDF7E03197F1F70196883C9105C1F7DF
:10F430008091C00087FFEFCF1EB897C08FEF80BBD1
:10F440000DC081B3809581BB80E090E0E0EDF7E0F6
:10F450003197F1F70196883C9105C1F78091C00082
:10F4600087FFEFCF11BA81C08FEF83BB0DC084B38C
:10F47000809584BB80E090E0E0EDF7E03197F1F714
:10F480000196883C9105C1F78091C00087FFEFCFBE
:10F4900014BA6BC08FEF809301010FC080910201FD
:10F4A00080958093020180E090E0E0EDF7E03197F5
:10F4B000F1F70196883C9105C1F78091C00087FF64
:10F4C000EDCF1092020151C08FEF809304010FC065
:10F4D0008091050180958093050180E090E0E0ED4A
:10F4E000F7E03197F1F70196883C9105C1F78091DB
:10F4F000C00087FFEDCF1092050137C08FEF8093DA
:10F5000007010FC08091080180958093080180E079
:10F5100090E0E0EDF7E03197F1F70196883C910536
:10F52000C1F78091C00087FFEDCF109208011DC088
:10F530008FEF80930A010FC080910B01809580931B
:10F540000B0180E090E0E0EDF7E03197F1F70196F4
:10F55000883C9105C1F78091C00087FFEDCF1092E4
:10F560000B0103C085E292EEEEC98091C00087FFD7
:10F57000FCCF8091C600EAC988E392EEE4C98CE131
:10F5800091EEE1C988249924933011F1943028F444
:10F59000913089F09230B8F408C0953061F195301F
:10F5A000F0F0963009F048C043C02B3109F042C951
:10F5B00091E06BE13FC96227C15DDE4F2883CF52E6
:10F5C000D14092E037C9B22FA0E0622793E032C960
:10F5D000822F90E0A82BB92B622794E02BC92E3004
:10F5E00009F039C3622795E0C05DDE4F19821882A9
:10F5F000C053D1401FC9E1E0F0E0EC0FFD1FC05D3A
:10F60000DE4F08811981C053D140E00FF11F2083E4
:10F610000F5F1F4FC05DDE4F19830883C053D14079
:10F6200062270A171B0709F005C9D80196E002C92D
:10F63000261709F010C303C0973009F0FBC87724E0
:10F640009981933109F412C19431C8F4963009F4C8
:10F65000D8C0973050F4923009F406C1933009F4C1
:10F660006DC0913009F059C253C0913109F477C08F
:10F67000923108F0BBC0903109F04FC2F5C098310B
:10F6800009F487C0993150F4953109F4EFC09531F0
:10F6900008F4C6C1963109F040C2C2C19A3109F4DA
:10F6A0006CC09A3108F491C09B3109F45BC09D3164
:10F6B00009F033C29D81903359F48F81882311F46E
:10F6C0009EE11CC0813011F091E018C098E916C08D
:10F6D000892F807591F0903539F4E0E0F0E089E011
:10F6E0008093570094910AC0983539F4E3E0F0E034
:10F6F00089E080935700949101C090E01A821B82A8
:10F700008D818C831D829E831F8227E030E009C299
:10F710001A8288E08B8381E48C8386E58D8382E581
:10F720008E8389E48F8383E5888780E589878FE5E9
:10F730008A8782E38B872BE030E0F3C18A818139AD
:10F7400041F0823941F0803911F48FE005C080E04A
:10F7500003C082E001C08AE01A828B8344C0772410
:10F76000739482C08D81882311F48EE12CC0813086
:10F7700011F081E028C088E926C01A82E1E0F0E0BB
:10F7800089E08093570084918B831C8224E030E0D1
:10F79000C8C18B81803589F48C81883039F4E2E0EE
:10F7A000F0E089E08093570084910DC0E0E0F0E044
:10F7B00089E080935700849106C0E3E0F0E089E09F
:10F7C0008093570084911A82DFCF8D81836C99E0FA
:10F7D000E1E0F0E0082E90935700E89507B600FCB2
:10F7E000FDCF1A821B8223E030E09BC180EC8A832C
:10F7F000CE5CDE4F188219821A821B82C253D1401E
:10F800008EC18A8190E0A0E0B0E0582F44273327D2
:10F8100022278B8190E0A0E0B0E0DC0199278827C7
:10F82000282B392B4A2B5B2B8D8190E0A0E0B0E098
:10F83000282B392B4A2B5B2B8C8190E0A0E0B0E089
:10F84000BA2FA92F982F8827282B392B4A2B5B2BCF
:10F85000220F331F441F551FC05EDE4F288339839C
:10F860004A835B83C052D1401A8259C13A81C95C34
:10F87000DE4F3883C753D140CA5CDE4F1882C6536F
:10F88000D1408B81C82EDD24CA5CDE4F488159816E
:10F89000C653D140C42AD52A933109F082C0CE5C28
:10F8A000DE4F88819981AA81BB81C253D1408050AB
:10F8B000904CA340B04030F583E0CE5CDE4FE88052
:10F8C000F9800A811B81C253D140F70100935B008C
:10F8D00080935700E89507B600FCFDCFCE5CDE4F65
:10F8E000088119812A813B81C253D14000501F4FAA
:10F8F0002F4F3F4FCE5CDE4F088319832A833B8313
:10F90000C253D140C05EDE4F488159816A817B81FC
:10F91000C052D140DE011B9631E08C9111962C91A2
:10F9200011971296C75CDE4F2883C953D140C85C3B
:10F93000DE4F1882C853D14090E0C85CDE4FE881AA
:10F94000F981C853D1408E2B9F2B0C01FA01609393
:10F950005B0030935700E89511244E5F5F4F6F4F67
:10F960007F4F0EEFE02E0FEFF02ECE0CDF1CC114F8
:10F97000D10499F685E0C05EDE4F088119812A81A5
:10F980003B81C052D140F80120935B008093570027
:10F99000E89507B600FCFDCF81E180935700E8951C
:10F9A00035C0C05EDE4F88819981AA81BB81C0527B
:10F9B000D140B695A795979587957C018601ABE0D8
:10F9C000AA2EB12CAC0EBD1E0BC0D5016D915D01F0
:10F9D000C7010F947FFE0894E11CF11C01501040F8
:10F9E0000115110591F7A60160E070E0440F551F65
:10F9F000661F771FC05EDE4FE880F9800A811B8199
:10FA0000C052D1404E0D5F1D601F711F1A82C05E33
:10FA1000DE4F488359836A837B83C052D1407FC0C5
:10FA2000FA80C55CDE4FF882CB53D140C65CDE4F16
:10FA30001882CA53D1408B81C82EDD24C65CDE4FAC
:10FA400008811981CA53D140C02AD12A1A828981DA
:10FA5000BE016D5F7F4F843121F59601C05EDE4FA0
:10FA6000E880F9800A811B81C052D1400BBFF701A9
:10FA700087919691DB018C9311969C936E5F7F4FDB
:10FA8000D801C7010296A11DB11DC05EDE4F88835B
:10FA90009983AA83BB83C052D14022503040F1F6F3
:10FAA00036C0C05EDE4F288139814A815B81C052F9
:10FAB000D1400894C108D108760100E010E0089414
:10FAC000C11CD11C0894E11CF11C011D111DE20E8A
:10FAD000F31E041F151F21BDBB27A52F942F832FB5
:10FAE00082BD2F5F3F4F4F4F5F4FF89A80B5DB01CC
:10FAF0008D93BD012E153F054007510761F7C05E8C
:10FB0000DE4F288339834A835B83C052D1409601FC
:10FB10002D5F3F4FFB01108204C080EC8A8322E0FE
:10FB200030E08BE18093C6008091C00086FFFCCF5F
:10FB30008091C00080648093C000C15DDE4FF88179
:10FB4000CF52D140F093C6008091C00086FFFCCF19
:10FB50008091C00080648093C000432F3093C60022
:10FB60008091C00086FFFCCF8091C00080648093AC
:10FB7000C000922F2093C6008091C00086FFFCCF6A
:10FB80008091C00080648093C0008EE08093C600A6
:10FB90008091C00086FFFCCF8091C000806480937C
:10FBA000C00065E1C15DDE4FE880CF52D1406E25D7
:10FBB00069276427FE01319610C090819093C6009A
:10FBC0008091C00086FFFCCF31968091C000806498
:10FBD0008093C0006927215030402115310569F715
:10FBE0006093C6008091C00086FFFCCF8091C0006A
:10FBF00080648093C00085B1805885B9772081F4F6
:10FC0000C15DDE4F0881CF52D1400F5FC15DDE4F35
:10FC10000883CF52D14090E0A0E0B0E00D941AF4F8
:10FC200027982F9880E090E020ED37E0F901319798
:10FC3000F1F7019684369105C9F700008091C00064
:10FC40008D7F8093C00081E180935700E895EE2777
:10FC5000FF270994FFCF90E00D941AF497FB092E2B
:10FC600007260AD077FD04D02ED006D000201AF443
:10FC7000709561957F4F0895F6F7909581959F4F08
:10FC80000895A1E21A2EAA1BBB1BFD010DC0AA1FDD
:10FC9000BB1FEE1FFF1FA217B307E407F50720F0F5
:10FCA000A21BB30BE40BF50B661F771F881F991F70
:10FCB0001A9469F760957095809590959B01AC01B9
:10FCC000BD01CF010895AA1BBB1B51E107C0AA1FAC
:10FCD000BB1FA617B70710F0A61BB70B881F991FED
:10FCE0005A95A9F780959095BC01CD010895F99991
:10FCF000FECF92BD81BDF89A992780B50895262F31
:10FD0000F999FECF1FBA92BD81BD20BD0FB6F89400
:0EFD1000FA9AF99A0FBE01960895F894FFCF63
:00000001FF
